{
  "contractName": "AllSignature",
  "abi": [
    {
      "constant": true,
      "inputs": [
        {
          "internalType": "address",
          "name": "",
          "type": "address"
        }
      ],
      "name": "signersMap",
      "outputs": [
        {
          "internalType": "bytes32",
          "name": "signersEmail",
          "type": "bytes32"
        },
        {
          "internalType": "string",
          "name": "signature",
          "type": "string"
        },
        {
          "internalType": "bool",
          "name": "exists",
          "type": "bool"
        }
      ],
      "payable": false,
      "stateMutability": "view",
      "type": "function"
    },
    {
      "inputs": [
        {
          "internalType": "address",
          "name": "_uploader",
          "type": "address"
        },
        {
          "internalType": "address",
          "name": "_eternalStorage",
          "type": "address"
        },
        {
          "internalType": "bytes32",
          "name": "_documentHash",
          "type": "bytes32"
        },
        {
          "internalType": "address[]",
          "name": "_signersAddresses",
          "type": "address[]"
        },
        {
          "internalType": "bytes32[]",
          "name": "_signersEmails",
          "type": "bytes32[]"
        },
        {
          "internalType": "uint256",
          "name": "_date",
          "type": "uint256"
        },
        {
          "internalType": "string",
          "name": "_fileName",
          "type": "string"
        }
      ],
      "payable": false,
      "stateMutability": "nonpayable",
      "type": "constructor"
    },
    {
      "anonymous": false,
      "inputs": [
        {
          "indexed": true,
          "internalType": "address",
          "name": "_from",
          "type": "address"
        },
        {
          "indexed": true,
          "internalType": "address",
          "name": "_this",
          "type": "address"
        },
        {
          "indexed": false,
          "internalType": "bytes32",
          "name": "_dochash",
          "type": "bytes32"
        },
        {
          "indexed": false,
          "internalType": "uint256",
          "name": "_type",
          "type": "uint256"
        },
        {
          "indexed": false,
          "internalType": "bool",
          "name": "_signed",
          "type": "bool"
        }
      ],
      "name": "SigningEvent",
      "type": "event"
    },
    {
      "constant": false,
      "inputs": [
        {
          "internalType": "string",
          "name": "_signature",
          "type": "string"
        },
        {
          "internalType": "bytes32",
          "name": "_dochash",
          "type": "bytes32"
        }
      ],
      "name": "signDocument",
      "outputs": [
        {
          "internalType": "bool",
          "name": "",
          "type": "bool"
        }
      ],
      "payable": false,
      "stateMutability": "nonpayable",
      "type": "function"
    },
    {
      "constant": true,
      "inputs": [],
      "name": "getSignersAddresses",
      "outputs": [
        {
          "internalType": "address[]",
          "name": "",
          "type": "address[]"
        }
      ],
      "payable": false,
      "stateMutability": "view",
      "type": "function"
    },
    {
      "constant": true,
      "inputs": [],
      "name": "isDocumentValid",
      "outputs": [
        {
          "internalType": "bool",
          "name": "",
          "type": "bool"
        }
      ],
      "payable": false,
      "stateMutability": "view",
      "type": "function"
    },
    {
      "constant": true,
      "inputs": [
        {
          "internalType": "address",
          "name": "_address",
          "type": "address"
        }
      ],
      "name": "getSignerInfo",
      "outputs": [
        {
          "internalType": "bytes32",
          "name": "",
          "type": "bytes32"
        },
        {
          "internalType": "string",
          "name": "",
          "type": "string"
        },
        {
          "internalType": "bool",
          "name": "",
          "type": "bool"
        }
      ],
      "payable": false,
      "stateMutability": "view",
      "type": "function"
    },
    {
      "constant": true,
      "inputs": [],
      "name": "getDocInfo",
      "outputs": [
        {
          "internalType": "bytes32",
          "name": "",
          "type": "bytes32"
        },
        {
          "internalType": "string",
          "name": "",
          "type": "string"
        },
        {
          "internalType": "address",
          "name": "",
          "type": "address"
        },
        {
          "internalType": "uint256",
          "name": "",
          "type": "uint256"
        },
        {
          "internalType": "uint256",
          "name": "",
          "type": "uint256"
        },
        {
          "internalType": "uint256",
          "name": "",
          "type": "uint256"
        },
        {
          "internalType": "uint256",
          "name": "",
          "type": "uint256"
        }
      ],
      "payable": false,
      "stateMutability": "view",
      "type": "function"
    }
  ],
  "bytecode": "0x60806040523480156200001157600080fd5b5060405162000d8a38038062000d8a833981810160405260e08110156200003757600080fd5b8151602083015160408085015160608601805192519496939591949391820192846401000000008211156200006b57600080fd5b9083019060208201858111156200008157600080fd5b82518660208202830111640100000000821117156200009f57600080fd5b82525081516020918201928201910280838360005b83811015620000ce578181015183820152602001620000b4565b5050505090500160405260200180516040519392919084640100000000821115620000f857600080fd5b9083019060208201858111156200010e57600080fd5b82518660208202830111640100000000821117156200012c57600080fd5b82525081516020918201928201910280838360005b838110156200015b57818101518382015260200162000141565b5050505090500160405260200180519060200190929190805160405193929190846401000000008211156200018f57600080fd5b908301906020820185811115620001a557600080fd5b8251640100000000811182820188101715620001c057600080fd5b82525081516020918201929091019080838360005b83811015620001ef578181015183820152602001620001d5565b50505050905090810190601f1680156200021d5780820380516001836020036101000a031916815260200191505b506040525050600180546001600160a01b0319166001600160a01b0389161790555083516200025490600090602087019062000359565b50600480546001600160a01b0319166001600160a01b038916179055600285905580516200028a906003906020840190620003c3565b5060058290558351600655600160085560005b6000548110156200034b57838181518110620002b557fe5b602002602001015160096000808481548110620002ce57fe5b60009182526020808320909101546001600160a01b0316835282019290925260400181209190915580546001916009918190859081106200030b57fe5b6000918252602080832091909101546001600160a01b031683528201929092526040019020600201805460ff19169115159190911790556001016200029d565b50505050505050506200048b565b828054828255906000526020600020908101928215620003b1579160200282015b82811115620003b157825182546001600160a01b0319166001600160a01b039091161782556020909201916001909101906200037a565b50620003bf92915062000444565b5090565b828054600181600116156101000203166002900490600052602060002090601f016020900481019282601f106200040657805160ff191683800117855562000436565b8280016001018555821562000436579182015b828111156200043657825182559160200191906001019062000419565b50620003bf9291506200046e565b6200046b91905b80821115620003bf5780546001600160a01b03191681556001016200044b565b90565b6200046b91905b80821115620003bf576000815560010162000475565b6108ef806200049b6000396000f3fe608060405234801561001057600080fd5b50600436106100625760003560e01c80635c7f94b7146100675780636638c73a14610117578063b2b4bd17146101d3578063ed56b3e11461022b578063f7134b6414610251578063fcf3e706146102d5575b600080fd5b61008d6004803603602081101561007d57600080fd5b50356001600160a01b03166102dd565b604051808481526020018060200183151515158152602001828103825284818151815260200191508051906020019080838360005b838110156100da5781810151838201526020016100c2565b50505050905090810190601f1680156101075780820380516001836020036101000a031916815260200191505b5094505050505060405180910390f35b61011f61038d565b6040518088815260200180602001876001600160a01b03166001600160a01b03168152602001868152602001858152602001848152602001838152602001828103825288818151815260200191508051906020019080838360005b8381101561019257818101518382015260200161017a565b50505050905090810190601f1680156101bf5780820380516001836020036101000a031916815260200191505b509850505050505050505060405180910390f35b6101db610469565b60408051602080825283518183015283519192839290830191858101910280838360005b838110156102175781810151838201526020016101ff565b505050509050019250505060405180910390f35b61008d6004803603602081101561024157600080fd5b50356001600160a01b03166104cc565b6102c16004803603604081101561026757600080fd5b81019060208101813564010000000081111561028257600080fd5b82018360208201111561029457600080fd5b803590602001918460018302840111640100000000831117156102b657600080fd5b919350915035610596565b604080519115158252519081900360200190f35b6102c1610806565b6009602090815260009182526040918290208054600180830180548651600293821615610100026000190190911692909204601f81018690048602830186019096528582529194929390929083018282801561037a5780601f1061034f5761010080835404028352916020019161037a565b820191906000526020600020905b81548152906001019060200180831161035d57829003601f168201915b5050506002909301549192505060ff1683565b6002805460045460055460065460075460085460038054604080516020610100600185161502600019019093169a909a04601f810183900483028b018301909152808a526000996060998b998a998a998a998a999498976001600160a01b03909416969295919490939092889183018282801561044b5780601f106104205761010080835404028352916020019161044b565b820191906000526020600020905b81548152906001019060200180831161042e57829003601f168201915b50505050509550965096509650965096509650965090919293949596565b606060008054806020026020016040519081016040528092919081815260200182805480156104c157602002820191906000526020600020905b81546001600160a01b031681526001909101906020018083116104a3575b505050505090505b90565b6001600160a01b038116600090815260096020908152604080832080546002808301546001938401805486516101009682161596909602600019011692909204601f810187900487028501870190955284845260609587959394929360ff909216929184918301828280156105825780601f1061055757610100808354040283529160200191610582565b820191906000526020600020905b81548152906001019060200180831161056557829003601f168201915b505050505091509250925092509193909250565b3360008181526009602052604081206002015490919060ff161515600114610605576040805162461bcd60e51b815260206004820152601960248201527f4d75737420626520612076616c6964207369676e61746f727900000000000000604482015290519081900360640190fd5b3360008181526009602052604090206001908101546002918116156101000260001901160415610673576040805162461bcd60e51b815260206004820152601460248201527314da59db985d1bdc9e481a185cc81cda59db995960621b604482015290519081900360640190fd5b6040805160208082018790528251808303820181528284018452805190820120600254606080850191909152845180850390910181526080909301909352815191012014610708576040805162461bcd60e51b815260206004820152601760248201527f496e636f727265637420646f63756d656e742068617368000000000000000000604482015290519081900360640190fd5b336000908152600960205260409020610725906001018787610822565b5060078054600190810190915560408051868152602081018390528082019290925251309133917ff31725eaa6c1cb72ac1fa886d6132a638cf8d19cb3bfbc0f1876d0162adeea319181900360600190a360015460408051631553376160e11b81527f414c4c5349475f5349474e4154555245535f434f554e54000000000000000000600482015290516001600160a01b0390921691632aa66ec29160248082019260009290919082900301818387803b1580156107e257600080fd5b505af11580156107f6573d6000803e3d6000fd5b5060019998505050505050505050565b6006546007546000911161081c575060016104c9565b50600090565b828054600181600116156101000203166002900490600052602060002090601f016020900481019282601f106108635782800160ff19823516178555610890565b82800160010185558215610890579182015b82811115610890578235825591602001919060010190610875565b5061089c9291506108a0565b5090565b6104c991905b8082111561089c57600081556001016108a656fea265627a7a72315820fe79d4cbabe26335fc303193129f7c377d730d19f795b1adc1b162dda94dcafd64736f6c634300050b0032",
  "source": "pragma solidity ^0.5.11;\nimport \"../../eternal-storage/EternalStorageInterface.sol\";\n\n/// @title All Signature Document\n/// @notice This contract stores the document's hash and signatories, all signatures are required to be considered valid\ncontract AllSignature {\n  /// @notice struct for storing all information of document.\n  /// @param documentHash Hashing of document done on front end. Must be hashed to 256 bits or 32 bytes.\n  /// @param fileName File description/name.\n  /// @param uploader Address of account that created smart contract. Obtained through contract constructor.\n  /// @param date Unix timestamp of the time when smart contract was constructed.\n  /// @param signaturesNeeded amount of signatures required for valid document. Equals number of valid signatories.\n  /// @param signedCount Number of signatures obtained.\n  /// @param contractType Type of signature smart contract. Allsignature is assigned: 1.\n  struct docInfo_ {\n    bytes32 documentHash;\n    string fileName;\n    address uploader;\n    uint256 date;\n    uint256 signaturesNeeded;\n    uint256 signedCount;\n    uint256 contractType;\n  }\n\n  /// @notice struct containing individual information of each signatory.\n  /// @param signersEmail Hash of signers email to 256 bits/32 bytes. Obtained through contract constructor.\n  /// @param signature Signature obtained through metamask.\n  /// @param exists Exists defaults to false if address isn't valid. Used to ensure validity of address.\n  struct signersInfo {\n    bytes32 signersEmail;\n    string signature;\n    bool exists;\n  }\n\n  address[] signersAddresses;\n  EternalStorageInterface es;\n  docInfo_ docInfo;\n  mapping(address => signersInfo) public signersMap;\n\n  /// @notice contract constructor. Called only by the All signature factory. Params are self explanatory.\n  /// @param _uploader Address of creator of All Signature Contract.\n  /// @param _eternalStorage Address of eternal storage for metric logging.\n  /// @param _documentHash Hash of uploaded document within 32 bytes.\n  /// @param _signersAddresses Array of addresses. Ensure index of address corresponds to index of signersEmails\n  /// @param _signersEmails Array of 32 bytes hash of emails of signatories.\n  /// @param _date Unix timestamp of when the contract is created\n  /// @param  _fileName Description/Name of file.\n  constructor(\n    address _uploader,\n    address _eternalStorage,\n    bytes32 _documentHash,\n    address[] memory _signersAddresses,\n    bytes32[] memory _signersEmails,\n    uint256 _date,\n    string memory _fileName\n  ) public {\n\n    es = EternalStorageInterface(_eternalStorage);\n    signersAddresses = _signersAddresses;\n\n    docInfo.uploader = _uploader;\n    docInfo.documentHash = _documentHash;\n    docInfo.fileName = _fileName;\n    docInfo.date = _date;\n    docInfo.signaturesNeeded = _signersAddresses.length;\n    docInfo.contractType = 1;\n\n    for (uint256 i = 0; i < signersAddresses.length; ++i) {\n      signersMap[signersAddresses[i]].signersEmail = _signersEmails[i];\n      signersMap[signersAddresses[i]].exists = true;\n    }\n  }\n\n  modifier isValidSigner(address _address) {\n    require(signersMap[_address].exists == true, \"Must be a valid signatory\");\n    _;\n  }\n\n  modifier notYetSigned(address _address) {\n    require(bytes(signersMap[_address].signature).length == 0, \"Signatory has signed\");\n    _;\n  }\n\n  /// @notice event emitted upon the block confirmation of the signing of document.\n  event SigningEvent(\n    address indexed _from,\n    address indexed _this,\n    bytes32 _dochash,\n    uint256 _type,\n    bool _signed\n  );\n\n  /// @notice Store signature in contract\n  /// @dev Invoked by signatory, only possible if signer is a valid signatory.\n  /// @param _signature signed hash of the document. Type: String.\n  /// @param _dochash hash of document to 32 bytes.\n  /// @return boolean value if signing was successful + emit event.\n  function signDocument(string calldata _signature, bytes32 _dochash)\n    external\n    isValidSigner(msg.sender)\n    notYetSigned(msg.sender)\n    returns (bool)\n  {\n    require(\n      keccak256(abi.encodePacked((docInfo.documentHash))) ==\n        keccak256(abi.encodePacked((_dochash))),\n      \"Incorrect document hash\"\n    );\n    signersMap[msg.sender].signature = _signature;\n    docInfo.signedCount++;\n    emit SigningEvent(msg.sender, address(this), _dochash, 1, true);\n    es.incrementMetrics(\"ALLSIG_SIGNATURES_COUNT\");\n\n    return true;\n  }\n\n  /// @notice Get signers' addresses\n  /// @dev Invoked by anyone\n  /// @return array of signers' addresses\n  function getSignersAddresses() external view returns (address[] memory) {\n    return signersAddresses;\n  }\n\n  /// @notice Check if document is signed by all signatories\n  /// @dev Invoked by anyone, inherited by multisig\n  /// @return boolean value\n  function isDocumentValid() public view returns (bool) {\n    if (docInfo.signedCount >= docInfo.signaturesNeeded) {\n      return true;\n    }\n    return false;\n  }\n\n  /// @notice returns all information of individual account if exists within mapping.\n  /// @param _address Address of the account who's information you want to get.\n  /// @return signer's email, signature, and whether it currently exists.\n  function getSignerInfo(address _address)\n    external\n    view\n    returns (bytes32, string memory, bool)\n  {\n    return (\n      signersMap[_address].signersEmail,\n      signersMap[_address].signature,\n      signersMap[_address].exists\n    );\n  }\n\n  /// @notice returns all information current document.\n  function getDocInfo()\n    external\n    view\n    returns (bytes32, string memory, address, uint256, uint256, uint256, uint256)\n  {\n    return (\n      docInfo.documentHash,\n      docInfo.fileName,\n      docInfo.uploader,\n      docInfo.date,\n      docInfo.signaturesNeeded,\n      docInfo.signedCount,\n      docInfo.contractType\n    );\n  }\n}\n",
  "sourcePath": "/Users/argentra/Downloads/workspace/jed/platform-contract/contracts/jedsign/all-signature/AllSignature.sol",
  "compiler": {
    "name": "solc",
    "version": "0.5.11+commit.c082d0b4.Emscripten.clang"
  },
  "schemaVersion": "3.0.23",
  "updatedAt": "2020-02-12T03:46:28.596Z",
  "devdoc": {
    "methods": {
      "constructor": {
        "params": {
          "_date": "Unix timestamp of when the contract is created",
          "_documentHash": "Hash of uploaded document within 32 bytes.",
          "_eternalStorage": "Address of eternal storage for metric logging.",
          "_fileName": "Description/Name of file.",
          "_signersAddresses": "Array of addresses. Ensure index of address corresponds to index of signersEmails",
          "_signersEmails": "Array of 32 bytes hash of emails of signatories.",
          "_uploader": "Address of creator of All Signature Contract."
        }
      },
      "getSignerInfo(address)": {
        "params": {
          "_address": "Address of the account who's information you want to get."
        },
        "return": "signer's email, signature, and whether it currently exists."
      },
      "getSignersAddresses()": {
        "details": "Invoked by anyone",
        "return": "array of signers' addresses"
      },
      "isDocumentValid()": {
        "details": "Invoked by anyone, inherited by multisig",
        "return": "boolean value"
      },
      "signDocument(string,bytes32)": {
        "details": "Invoked by signatory, only possible if signer is a valid signatory.",
        "params": {
          "_dochash": "hash of document to 32 bytes.",
          "_signature": "signed hash of the document. Type: String."
        },
        "return": "boolean value if signing was successful + emit event."
      }
    },
    "title": "All Signature Document"
  },
  "userdoc": {
    "methods": {
      "constructor": "contract constructor. Called only by the All signature factory. Params are self explanatory.",
      "getDocInfo()": {
        "notice": "returns all information current document."
      },
      "getSignerInfo(address)": {
        "notice": "returns all information of individual account if exists within mapping."
      },
      "getSignersAddresses()": {
        "notice": "Get signers' addresses"
      },
      "isDocumentValid()": {
        "notice": "Check if document is signed by all signatories"
      },
      "signDocument(string,bytes32)": {
        "notice": "Store signature in contract"
      }
    },
    "notice": "This contract stores the document's hash and signatories, all signatures are required to be considered valid"
  }
}