{
  "contractName": "EternalStorage",
  "abi": [
    {
      "constant": true,
      "inputs": [
        {
          "internalType": "address",
          "name": "",
          "type": "address"
        }
      ],
      "name": "isAllowedSignatureContracts",
      "outputs": [
        {
          "internalType": "bool",
          "name": "",
          "type": "bool"
        }
      ],
      "payable": false,
      "stateMutability": "view",
      "type": "function"
    },
    {
      "constant": true,
      "inputs": [
        {
          "internalType": "bytes32",
          "name": "",
          "type": "bytes32"
        },
        {
          "internalType": "uint256",
          "name": "",
          "type": "uint256"
        }
      ],
      "name": "hashMap",
      "outputs": [
        {
          "internalType": "uint256",
          "name": "validationType",
          "type": "uint256"
        },
        {
          "internalType": "address",
          "name": "contractAddress",
          "type": "address"
        }
      ],
      "payable": false,
      "stateMutability": "view",
      "type": "function"
    },
    {
      "constant": true,
      "inputs": [
        {
          "internalType": "address",
          "name": "",
          "type": "address"
        },
        {
          "internalType": "uint256",
          "name": "",
          "type": "uint256"
        }
      ],
      "name": "uploaderContractsMap",
      "outputs": [
        {
          "internalType": "uint256",
          "name": "validationType",
          "type": "uint256"
        },
        {
          "internalType": "address",
          "name": "contractAddress",
          "type": "address"
        }
      ],
      "payable": false,
      "stateMutability": "view",
      "type": "function"
    },
    {
      "constant": true,
      "inputs": [
        {
          "internalType": "bytes32",
          "name": "",
          "type": "bytes32"
        }
      ],
      "name": "metrics",
      "outputs": [
        {
          "internalType": "uint256",
          "name": "",
          "type": "uint256"
        }
      ],
      "payable": false,
      "stateMutability": "view",
      "type": "function"
    },
    {
      "constant": true,
      "inputs": [
        {
          "internalType": "address",
          "name": "",
          "type": "address"
        },
        {
          "internalType": "uint256",
          "name": "",
          "type": "uint256"
        }
      ],
      "name": "signatoryContractsMap",
      "outputs": [
        {
          "internalType": "uint256",
          "name": "validationType",
          "type": "uint256"
        },
        {
          "internalType": "address",
          "name": "contractAddress",
          "type": "address"
        }
      ],
      "payable": false,
      "stateMutability": "view",
      "type": "function"
    },
    {
      "constant": true,
      "inputs": [
        {
          "internalType": "address",
          "name": "",
          "type": "address"
        }
      ],
      "name": "isAdmins",
      "outputs": [
        {
          "internalType": "bool",
          "name": "",
          "type": "bool"
        }
      ],
      "payable": false,
      "stateMutability": "view",
      "type": "function"
    },
    {
      "constant": true,
      "inputs": [
        {
          "internalType": "address",
          "name": "",
          "type": "address"
        }
      ],
      "name": "isAllowedFactoryContracts",
      "outputs": [
        {
          "internalType": "bool",
          "name": "",
          "type": "bool"
        }
      ],
      "payable": false,
      "stateMutability": "view",
      "type": "function"
    },
    {
      "inputs": [],
      "payable": false,
      "stateMutability": "nonpayable",
      "type": "constructor"
    },
    {
      "constant": false,
      "inputs": [
        {
          "internalType": "address",
          "name": "_newVersion",
          "type": "address"
        }
      ],
      "name": "addFactoryContract",
      "outputs": [],
      "payable": false,
      "stateMutability": "nonpayable",
      "type": "function"
    },
    {
      "constant": false,
      "inputs": [
        {
          "internalType": "address",
          "name": "_oldVersion",
          "type": "address"
        }
      ],
      "name": "deleteFactoryContract",
      "outputs": [],
      "payable": false,
      "stateMutability": "nonpayable",
      "type": "function"
    },
    {
      "constant": false,
      "inputs": [
        {
          "internalType": "address",
          "name": "_address",
          "type": "address"
        }
      ],
      "name": "setAdmin",
      "outputs": [],
      "payable": false,
      "stateMutability": "nonpayable",
      "type": "function"
    },
    {
      "constant": false,
      "inputs": [
        {
          "internalType": "address",
          "name": "_address",
          "type": "address"
        }
      ],
      "name": "deleteAdmin",
      "outputs": [],
      "payable": false,
      "stateMutability": "nonpayable",
      "type": "function"
    },
    {
      "constant": true,
      "inputs": [
        {
          "internalType": "address",
          "name": "_address",
          "type": "address"
        }
      ],
      "name": "getUploaderContracts",
      "outputs": [
        {
          "components": [
            {
              "internalType": "uint256",
              "name": "validationType",
              "type": "uint256"
            },
            {
              "internalType": "address",
              "name": "contractAddress",
              "type": "address"
            }
          ],
          "internalType": "struct EternalStorage.ContractDetails[]",
          "name": "",
          "type": "tuple[]"
        }
      ],
      "payable": false,
      "stateMutability": "view",
      "type": "function"
    },
    {
      "constant": true,
      "inputs": [
        {
          "internalType": "address",
          "name": "_address",
          "type": "address"
        }
      ],
      "name": "getSignatoryContracts",
      "outputs": [
        {
          "components": [
            {
              "internalType": "uint256",
              "name": "validationType",
              "type": "uint256"
            },
            {
              "internalType": "address",
              "name": "contractAddress",
              "type": "address"
            }
          ],
          "internalType": "struct EternalStorage.ContractDetails[]",
          "name": "",
          "type": "tuple[]"
        }
      ],
      "payable": false,
      "stateMutability": "view",
      "type": "function"
    },
    {
      "constant": false,
      "inputs": [
        {
          "internalType": "uint256",
          "name": "_validationType",
          "type": "uint256"
        },
        {
          "internalType": "address",
          "name": "_uploaderAddress",
          "type": "address"
        },
        {
          "internalType": "address",
          "name": "_contractAddress",
          "type": "address"
        },
        {
          "internalType": "bytes32",
          "name": "_hash",
          "type": "bytes32"
        }
      ],
      "name": "addUploaderContract",
      "outputs": [
        {
          "internalType": "bool",
          "name": "",
          "type": "bool"
        }
      ],
      "payable": false,
      "stateMutability": "nonpayable",
      "type": "function"
    },
    {
      "constant": false,
      "inputs": [
        {
          "internalType": "uint256",
          "name": "_validationType",
          "type": "uint256"
        },
        {
          "internalType": "address",
          "name": "_signatoryAddress",
          "type": "address"
        },
        {
          "internalType": "address",
          "name": "_contractAddress",
          "type": "address"
        }
      ],
      "name": "addSignatoryContract",
      "outputs": [
        {
          "internalType": "bool",
          "name": "",
          "type": "bool"
        }
      ],
      "payable": false,
      "stateMutability": "nonpayable",
      "type": "function"
    },
    {
      "constant": true,
      "inputs": [
        {
          "internalType": "bytes32",
          "name": "_hash",
          "type": "bytes32"
        }
      ],
      "name": "getAddressFromHash",
      "outputs": [
        {
          "components": [
            {
              "internalType": "uint256",
              "name": "validationType",
              "type": "uint256"
            },
            {
              "internalType": "address",
              "name": "contractAddress",
              "type": "address"
            }
          ],
          "internalType": "struct EternalStorage.ContractDetails[]",
          "name": "",
          "type": "tuple[]"
        }
      ],
      "payable": false,
      "stateMutability": "view",
      "type": "function"
    },
    {
      "constant": false,
      "inputs": [
        {
          "internalType": "bytes32",
          "name": "_key",
          "type": "bytes32"
        },
        {
          "internalType": "uint256",
          "name": "value",
          "type": "uint256"
        }
      ],
      "name": "incrementMetrics",
      "outputs": [],
      "payable": false,
      "stateMutability": "nonpayable",
      "type": "function"
    },
    {
      "constant": false,
      "inputs": [
        {
          "internalType": "bytes32",
          "name": "_key",
          "type": "bytes32"
        }
      ],
      "name": "incrementMetrics",
      "outputs": [],
      "payable": false,
      "stateMutability": "nonpayable",
      "type": "function"
    },
    {
      "constant": true,
      "inputs": [
        {
          "internalType": "address",
          "name": "_address",
          "type": "address"
        }
      ],
      "name": "getUploaderCount",
      "outputs": [
        {
          "internalType": "uint256",
          "name": "",
          "type": "uint256"
        }
      ],
      "payable": false,
      "stateMutability": "view",
      "type": "function"
    },
    {
      "constant": true,
      "inputs": [
        {
          "internalType": "address",
          "name": "_address",
          "type": "address"
        }
      ],
      "name": "getSigningInvitationCount",
      "outputs": [
        {
          "internalType": "uint256",
          "name": "",
          "type": "uint256"
        }
      ],
      "payable": false,
      "stateMutability": "view",
      "type": "function"
    },
    {
      "constant": true,
      "inputs": [
        {
          "internalType": "bytes32",
          "name": "_key",
          "type": "bytes32"
        }
      ],
      "name": "getMetricsValue",
      "outputs": [
        {
          "internalType": "uint256",
          "name": "",
          "type": "uint256"
        }
      ],
      "payable": false,
      "stateMutability": "view",
      "type": "function"
    },
    {
      "constant": true,
      "inputs": [
        {
          "internalType": "address",
          "name": "_address",
          "type": "address"
        }
      ],
      "name": "isAccountAdmin",
      "outputs": [
        {
          "internalType": "bool",
          "name": "",
          "type": "bool"
        }
      ],
      "payable": false,
      "stateMutability": "view",
      "type": "function"
    }
  ],
  "bytecode": "0x608060405234801561001057600080fd5b50336000908152600660205260409020805460ff19166001179055610e908061003a6000396000f3fe608060405234801561001057600080fd5b50600436106101425760003560e01c80637f4f25cd116100b8578063d28ec5e61161007c578063d28ec5e6146102b7578063dcaa79af146102ca578063e2b4c8f0146102dd578063e30bd2a9146102f0578063e435ef6614610303578063f9f885db1461031657610142565b80637f4f25cd1461025857806390af7f1a1461026b57806394ba373d1461027e578063a3bdb57e14610291578063d1a8ef5e146102a457610142565b80632aa66ec21161010a5780632aa66ec2146101cb578063334a77d9146101de5780633eb669eb146101fe5780634da90f3414610211578063548dc6de14610224578063704b6c021461024557610142565b806305e8c0d5146101475780631116eb7d1461015c5780632090b53e1461018557806321695c72146101a557806327e1f7df146101b8575b600080fd5b61015a610155366004610a15565b610329565b005b61016f61016a366004610a15565b6103ba565b60405161017c9190610d74565b60405180910390f35b610198610193366004610a75565b6103cf565b60405161017c9190610dd2565b61015a6101b3366004610a15565b6103e1565b61015a6101c6366004610a15565b61046d565b61015a6101d9366004610a75565b6104bd565b6101f16101ec366004610a75565b61051d565b60405161017c9190610d5c565b61019861020c366004610a15565b6105a5565b61016f61021f366004610a15565b6105c0565b610237610232366004610a93565b6105de565b60405161017c929190610de0565b61015a610253366004610a15565b610620565b610237610266366004610a3b565b610673565b61016f610279366004610ab2565b61068c565b61019861028c366004610a15565b61073c565b6101f161029f366004610a15565b610757565b6101f16102b2366004610a15565b6107d4565b61016f6102c5366004610aff565b61084f565b6101986102d8366004610a75565b610943565b6102376102eb366004610a3b565b610955565b61016f6102fe366004610a15565b61096e565b61016f610311366004610a15565b610983565b61015a610324366004610a93565b610998565b3360009081526006602052604090205460ff166103615760405162461bcd60e51b815260040161035890610dc2565b60405180910390fd5b6001600160a01b03811660009081526004602052604090205460ff166103995760405162461bcd60e51b815260040161035890610db2565b6001600160a01b03166000908152600460205260409020805460ff19169055565b60056020526000908152604090205460ff1681565b60009081526003602052604090205490565b3360009081526006602052604090205460ff166104105760405162461bcd60e51b815260040161035890610dc2565b6001600160a01b03811660009081526004602052604090205460ff16156104495760405162461bcd60e51b815260040161035890610d82565b6001600160a01b03166000908152600460205260409020805460ff19166001179055565b3360009081526006602052604090205460ff1661049c5760405162461bcd60e51b815260040161035890610dc2565b6001600160a01b03166000908152600660205260409020805460ff19169055565b3360009081526005602052604090205460ff16806104ea57503360009081526004602052604090205460ff165b6105065760405162461bcd60e51b815260040161035890610d92565b600090815260036020526040902080546001019055565b606060026000838152602001908152602001600020805480602002602001604051908101604052809291908181526020016000905b8282101561059a5760008481526020908190206040805180820190915260028502909101805482526001908101546001600160a01b0316828401529083529092019101610552565b505050509050919050565b6001600160a01b031660009081526020819052604090205490565b6001600160a01b031660009081526006602052604090205460ff1690565b600260205281600052604060002081815481106105f757fe5b6000918252602090912060029091020180546001909101549092506001600160a01b0316905082565b3360009081526006602052604090205460ff1661064f5760405162461bcd60e51b815260040161035890610dc2565b6001600160a01b03166000908152600660205260409020805460ff19166001179055565b600060205281600052604060002081815481106105f757fe5b3360009081526005602052604081205460ff16806106b957503360009081526004602052604090205460ff165b6106d55760405162461bcd60e51b815260040161035890610d92565b6001600160a01b039283166000908152600160208181526040808420815180830190925297815294861685820190815287548084018955978452922093516002909602909301948555519390910180546001600160a01b0319169390921692909217905590565b6001600160a01b031660009081526001602052604090205490565b6001600160a01b038116600090815260016020908152604080832080548251818502810185019093528083526060949293919290918401821561059a5760008481526020908190206040805180820190915260028502909101805482526001908101546001600160a01b0316828401529083529092019101610552565b6001600160a01b03811660009081526020818152604080832080548251818502810185019093528083526060949293919290918401821561059a5760008481526020908190206040805180820190915260028502909101805482526001908101546001600160a01b0316828401529083529092019101610552565b3360009081526004602052604081205460ff1661087e5760405162461bcd60e51b815260040161035890610da2565b6001600160a01b039384166000908152602081815260408083208151808301835289815296881687840181815282546001818101855593875285872099516002918202909a01998a5590519883018054998b166001600160a01b03199a8b16179055968552868452828520835180850185529a8b528a8501828152815480850183559187528587209b5191909802909a01998a5595519881018054999098169890961697909717909555918252600590935292909220805460ff191690921790915590565b60036020526000908152604090205481565b600160205281600052604060002081815481106105f757fe5b60066020526000908152604090205460ff1681565b60046020526000908152604090205460ff1681565b3360009081526005602052604090205460ff16806109c557503360009081526004602052604090205460ff165b6109e15760405162461bcd60e51b815260040161035890610d92565b60009182526003602052604090912080549091019055565b8035610a0481610e2d565b92915050565b8035610a0481610e44565b600060208284031215610a2757600080fd5b6000610a3384846109f9565b949350505050565b60008060408385031215610a4e57600080fd5b6000610a5a85856109f9565b9250506020610a6b85828601610a0a565b9150509250929050565b600060208284031215610a8757600080fd5b6000610a338484610a0a565b60008060408385031215610aa657600080fd5b6000610a5a8585610a0a565b600080600060608486031215610ac757600080fd5b6000610ad38686610a0a565b9350506020610ae4868287016109f9565b9250506040610af5868287016109f9565b9150509250925092565b60008060008060808587031215610b1557600080fd5b6000610b218787610a0a565b9450506020610b32878288016109f9565b9350506040610b43878288016109f9565b9250506060610b5487828801610a0a565b91505092959194509250565b6000610b6c8383610d29565b505060400190565b610b7d81610e0e565b82525050565b6000610b8e82610e01565b610b988185610e05565b9350610ba383610dfb565b8060005b83811015610bd1578151610bbb8882610b60565b9750610bc683610dfb565b925050600101610ba7565b509495945050505050565b610b7d81610e19565b6000610bf2601e83610e05565b7f466163746f7279206164647265737320616c7265616479206578697374730000815260200192915050565b6000610c2b603c83610e05565b7f436f6e747261637420646f6573206e6f742068617665207065726d697373696f81527f6e7320746f2075706461746520657465726e616c2073746f7261676500000000602082015260400192915050565b6000610c8a602183610e05565b7f466163746f727920646f6573206e6f742068617665207065726d697373696f6e8152607360f81b602082015260400192915050565b6000610ccd601e83610e05565b7f466163746f7279206164647265737320646f6573206e6f742065786973740000815260200192915050565b6000610d06601483610e05565b7320b1b1b7bab73a1034b9903737ba1030b236b4b760611b815260200192915050565b80516040830190610d3a8482610d53565b506020820151610d4d6020850182610b74565b50505050565b610b7d81610e1e565b60208082528101610d6d8184610b83565b9392505050565b60208101610a048284610bdc565b60208082528101610a0481610be5565b60208082528101610a0481610c1e565b60208082528101610a0481610c7d565b60208082528101610a0481610cc0565b60208082528101610a0481610cf9565b60208101610a048284610d53565b60408101610dee8285610d53565b610d6d6020830184610b74565b60200190565b5190565b90815260200190565b6000610a0482610e21565b151590565b90565b6001600160a01b031690565b610e3681610e0e565b8114610e4157600080fd5b50565b610e3681610e1e56fea365627a7a72315820040cc30bd8468c3d2f941e44f5757ed6c15810f527d4965f9c979234fc63d1366c6578706572696d656e74616cf564736f6c634300050b0040",
  "source": "pragma solidity ^0.5.11;\npragma experimental ABIEncoderV2;\n\ncontract EternalStorage {\n  /*\nvalidationType\n1: AllSignatures\n2: MultipleSignatures\n3: Petition\n*/\n  struct ContractDetails {\n    uint256 validationType;\n    address contractAddress;\n  }\n\n  mapping(address => ContractDetails[]) public uploaderContractsMap;\n  mapping(address => ContractDetails[]) public signatoryContractsMap;\n  mapping(bytes32 => ContractDetails[]) public hashMap;\n\n  mapping(bytes32 => uint256) public metrics;\n\n  mapping(address => bool) public isAllowedFactoryContracts;\n  mapping(address => bool) public isAllowedSignatureContracts;\n\n  mapping(address => bool) public isAdmins;\n\n  constructor() public {\n    isAdmins[msg.sender] = true;\n  }\n\n  modifier isAdmin() {\n    require(isAdmins[msg.sender], \"Account is not admin\");\n    _;\n  }\n\n  modifier isAllowedFactory() {\n    require(isAllowedFactoryContracts[msg.sender], \"Factory does not have permissions\");\n    _;\n  }\n\n  //admin functions\n\n  /// @notice Adds factory contract to allowed list\n  /// @param _newVersion Address of factory contract to be added.\n  function addFactoryContract(address _newVersion) public isAdmin() {\n    require(!isAllowedFactoryContracts[_newVersion], \"Factory address already exists\");\n    isAllowedFactoryContracts[_newVersion] = true;\n  }\n\n  /// @notice Removes factory contract from allowed list\n  /// @param _oldVersion Address of factory contract to be removed.\n  function deleteFactoryContract(address _oldVersion) public isAdmin() {\n    require(isAllowedFactoryContracts[_oldVersion], \"Factory address does not exist\");\n    isAllowedFactoryContracts[_oldVersion] = false;\n  }\n\n  /// @notice Give admin rights to an address\n  /// @param _address Address of account to be given rights to.\n  function setAdmin(address _address) external isAdmin() {\n    isAdmins[_address] = true;\n  }\n\n  /// @notice Remove admin rights to an address\n  /// @param _address Address of admin to be removed.\n  function deleteAdmin(address _address) external isAdmin() {\n    isAdmins[_address] = false;\n  }\n\n  /// @notice Array of addresses which account has created\n  /// @param _address Address of account\n  /// @return array of struct containing contract address and type of contract. 1: AllSig, 2: MultiSig, 3: Petition\n  function getUploaderContracts(address _address)\n    external\n    view\n    returns (ContractDetails[] memory)\n  {\n    return uploaderContractsMap[_address];\n  }\n\n  /// @notice Array of addresses where the account has been requested to sign on a document\n  /// @param _address Address of account to be queried.\n  /// @return array of struct containing contract address and type of contract. 1: AllSig, 2: MultiSig, 3: Petition\n  function getSignatoryContracts(address _address)\n    external\n    view\n    returns (ContractDetails[] memory)\n  {\n    return signatoryContractsMap[_address];\n  }\n\n  /// @notice Appends the signature contract to a list of contracts where account uploaded document.\n  /// @param _validationType Type of signature contract 1: AllSig, 2: MultiSig, 3: Petition\n  /// @param _uploaderAddress Address of document uploader.\n  /// @param _contractAddress address of contract to be appended to list.\n  /// @param _hash Document hash so document hash can be mapped to a list of contract addresses.\n  function addUploaderContract(\n    uint256 _validationType,\n    address _uploaderAddress,\n    address _contractAddress,\n    bytes32 _hash\n  ) external isAllowedFactory returns (bool) {\n    uploaderContractsMap[_uploaderAddress].push(\n      ContractDetails(_validationType, _contractAddress)\n    );\n    hashMap[_hash].push(ContractDetails(_validationType, _contractAddress));\n    isAllowedSignatureContracts[_contractAddress] = true;\n  }\n\n  /// @notice Appends the signature contract to a list of contracts where account is required to sign.\n  /// @param _validationType Type of signature contract 1: AllSig, 2: MultiSig\n  /// ****** Petition contract not added to list as address cannot be explicitly requested for signing.\n  /// @param _signatoryAddress Address of account to add contract to.\n  /// @param _contractAddress address of contract to be appended to list.\n  function addSignatoryContract(\n    uint256 _validationType,\n    address _signatoryAddress,\n    address _contractAddress\n  ) external authorizedContract returns (bool) {\n    signatoryContractsMap[_signatoryAddress].push(\n      ContractDetails(_validationType, _contractAddress)\n    );\n  }\n\n  modifier authorizedContract() {\n    require(\n      isAllowedSignatureContracts[msg.sender] || isAllowedFactoryContracts[msg.sender],\n      \"Contract does not have permissions to update eternal storage\"\n    );\n    _;\n  }\n\n  /// @notice Get all signature contracts with the given document hash\n  /// @param _hash document hash that is uploaded for signing\n  /// @return array of struct containing address of contract and document hash of contract\n  function getAddressFromHash(bytes32 _hash)\n    external\n    view\n    returns (ContractDetails[] memory)\n  {\n    return hashMap[_hash];\n  }\n\n  /// @notice increments the value assigned to the metric key by one.\n  /// @param _key key of metric e.g ISSUED_ALLSIG\n  function incrementMetrics(bytes32 _key) external authorizedContract() {\n    metrics[_key]++;\n  }\n\n  function incrementMetrics(bytes32 _key, uint value) external authorizedContract() {\n    metrics[_key] += value;\n  }\n\n  /// @notice Number of times account has uploaded a document for signing\n  /// @param _address Address of account\n  /// @return Number of times account has uploaded a document for signing\n  function getUploaderCount(address _address) external view returns (uint256) {\n    return uploaderContractsMap[_address].length;\n  }\n\n  /// @notice Number of times the account has been requested to sign on a document\n  /// @param _address Address of account\n  /// @return Number of times the account has been requested to sign on a document\n  function getSigningInvitationCount(address _address) external view returns (uint256) {\n    return signatoryContractsMap[_address].length;\n  }\n\n  /// @notice Number of times the account has been requested to sign on a document\n  /// @param _key key of metric e.g ISSUED_ALLSIG\n  /// @return metric value of given key\n  function getMetricsValue(bytes32 _key) external view returns (uint256) {\n    return metrics[_key];\n  }\n\n  /// @notice Checks whether provided account is admin\n  /// @dev called by factories when checking to see if msg.sender of eternalStorage address change is admin\n  /// @param _address address of account to check if admin\n  function isAccountAdmin(address _address) external view returns (bool) {\n    return isAdmins[_address];\n  }\n}\n",
  "sourcePath": "/Users/argentra/Downloads/workspace/jed/platform-contract/contracts/eternal-storage/EternalStorage.sol",
  "compiler": {
    "name": "solc",
    "version": "0.5.11+commit.c082d0b4.Emscripten.clang"
  },
  "schemaVersion": "3.0.23",
  "updatedAt": "2020-02-12T04:08:38.302Z",
  "networkType": "ethereum",
  "devdoc": {
    "methods": {
      "addFactoryContract(address)": {
        "params": {
          "_newVersion": "Address of factory contract to be added."
        }
      },
      "addSignatoryContract(uint256,address,address)": {
        "params": {
          "_contractAddress": "address of contract to be appended to list.",
          "_signatoryAddress": "Address of account to add contract to.",
          "_validationType": "Type of signature contract 1: AllSig, 2: MultiSig ****** Petition contract not added to list as address cannot be explicitly requested for signing."
        }
      },
      "addUploaderContract(uint256,address,address,bytes32)": {
        "params": {
          "_contractAddress": "address of contract to be appended to list.",
          "_hash": "Document hash so document hash can be mapped to a list of contract addresses.",
          "_uploaderAddress": "Address of document uploader.",
          "_validationType": "Type of signature contract 1: AllSig, 2: MultiSig, 3: Petition"
        }
      },
      "deleteAdmin(address)": {
        "params": {
          "_address": "Address of admin to be removed."
        }
      },
      "deleteFactoryContract(address)": {
        "params": {
          "_oldVersion": "Address of factory contract to be removed."
        }
      },
      "getAddressFromHash(bytes32)": {
        "params": {
          "_hash": "document hash that is uploaded for signing"
        },
        "return": "array of struct containing address of contract and document hash of contract"
      },
      "getMetricsValue(bytes32)": {
        "params": {
          "_key": "key of metric e.g ISSUED_ALLSIG"
        },
        "return": "metric value of given key"
      },
      "getSignatoryContracts(address)": {
        "params": {
          "_address": "Address of account to be queried."
        },
        "return": "array of struct containing contract address and type of contract. 1: AllSig, 2: MultiSig, 3: Petition"
      },
      "getSigningInvitationCount(address)": {
        "params": {
          "_address": "Address of account"
        },
        "return": "Number of times the account has been requested to sign on a document"
      },
      "getUploaderContracts(address)": {
        "params": {
          "_address": "Address of account"
        },
        "return": "array of struct containing contract address and type of contract. 1: AllSig, 2: MultiSig, 3: Petition"
      },
      "getUploaderCount(address)": {
        "params": {
          "_address": "Address of account"
        },
        "return": "Number of times account has uploaded a document for signing"
      },
      "incrementMetrics(bytes32)": {
        "params": {
          "_key": "key of metric e.g ISSUED_ALLSIG"
        }
      },
      "isAccountAdmin(address)": {
        "details": "called by factories when checking to see if msg.sender of eternalStorage address change is admin",
        "params": {
          "_address": "address of account to check if admin"
        }
      },
      "setAdmin(address)": {
        "params": {
          "_address": "Address of account to be given rights to."
        }
      }
    }
  },
  "userdoc": {
    "methods": {
      "addFactoryContract(address)": {
        "notice": "Adds factory contract to allowed list"
      },
      "addSignatoryContract(uint256,address,address)": {
        "notice": "Appends the signature contract to a list of contracts where account is required to sign."
      },
      "addUploaderContract(uint256,address,address,bytes32)": {
        "notice": "Appends the signature contract to a list of contracts where account uploaded document."
      },
      "deleteAdmin(address)": {
        "notice": "Remove admin rights to an address"
      },
      "deleteFactoryContract(address)": {
        "notice": "Removes factory contract from allowed list"
      },
      "getAddressFromHash(bytes32)": {
        "notice": "Get all signature contracts with the given document hash"
      },
      "getMetricsValue(bytes32)": {
        "notice": "Number of times the account has been requested to sign on a document"
      },
      "getSignatoryContracts(address)": {
        "notice": "Array of addresses where the account has been requested to sign on a document"
      },
      "getSigningInvitationCount(address)": {
        "notice": "Number of times the account has been requested to sign on a document"
      },
      "getUploaderContracts(address)": {
        "notice": "Array of addresses which account has created"
      },
      "getUploaderCount(address)": {
        "notice": "Number of times account has uploaded a document for signing"
      },
      "incrementMetrics(bytes32)": {
        "notice": "increments the value assigned to the metric key by one."
      },
      "isAccountAdmin(address)": {
        "notice": "Checks whether provided account is admin"
      },
      "setAdmin(address)": {
        "notice": "Give admin rights to an address"
      }
    }
  }
}