{
  "contractName": "FactoryNoSignature",
  "abi": [
    {
      "inputs": [
        {
          "internalType": "address",
          "name": "_eternalStorage",
          "type": "address"
        }
      ],
      "payable": false,
      "stateMutability": "nonpayable",
      "type": "constructor"
    },
    {
      "anonymous": false,
      "inputs": [
        {
          "indexed": true,
          "internalType": "address",
          "name": "_from",
          "type": "address"
        },
        {
          "indexed": true,
          "internalType": "address",
          "name": "_newDoc",
          "type": "address"
        },
        {
          "indexed": false,
          "internalType": "uint256",
          "name": "_date",
          "type": "uint256"
        }
      ],
      "name": "CreateDocEvent",
      "type": "event"
    },
    {
      "constant": false,
      "inputs": [
        {
          "internalType": "address",
          "name": "_newEternal",
          "type": "address"
        }
      ],
      "name": "changeEternal",
      "outputs": [],
      "payable": false,
      "stateMutability": "nonpayable",
      "type": "function"
    },
    {
      "constant": false,
      "inputs": [
        {
          "internalType": "bytes32",
          "name": "dochash",
          "type": "bytes32"
        },
        {
          "internalType": "uint256",
          "name": "date",
          "type": "uint256"
        },
        {
          "internalType": "string",
          "name": "fileName",
          "type": "string"
        }
      ],
      "name": "createNoSignature",
      "outputs": [],
      "payable": false,
      "stateMutability": "nonpayable",
      "type": "function"
    }
  ],
  "bytecode": "0x608060405234801561001057600080fd5b506040516113253803806113258339818101604052602081101561003357600080fd5b5051600080546001600160a01b039092166001600160a01b03199092169190911790556112c0806100656000396000f3fe608060405234801561001057600080fd5b50600436106100365760003560e01c8063ccf97f911461003b578063d4f79aec146100ef575b600080fd5b6100ed6004803603606081101561005157600080fd5b81359160208101359181019060608101604082013564010000000081111561007857600080fd5b82018360208201111561008a57600080fd5b803590602001918460018302840111640100000000831117156100ac57600080fd5b91908080601f016020809104026020016040519081016040528093929190818152602001838380828437600092019190915250929550610115945050505050565b005b6100ed6004803603602081101561010557600080fd5b50356001600160a01b03166103e7565b606080600080336000809054906101000a90046001600160a01b03168886868a60008b604051610144906104cc565b80896001600160a01b03166001600160a01b03168152602001886001600160a01b03166001600160a01b03168152602001878152602001806020018060200186815260200185815260200180602001848103845289818151815260200191508051906020019060200280838360005b838110156101cb5781810151838201526020016101b3565b50505050905001848103835288818151815260200191508051906020019060200280838360005b8381101561020a5781810151838201526020016101f2565b50505050905001848103825285818151815260200191508051906020019080838360005b8381101561024657818101518382015260200161022e565b50505050905090810190601f1680156102735780820380516001836020036101000a031916815260200191505b509b505050505050505050505050604051809103906000f08015801561029d573d6000803e3d6000fd5b50600080546040805163694762f360e11b81526004818101523360248201526001600160a01b038086166044830152606482018d9052915194955091169263d28ec5e692608480840193602093929083900390910190829087803b15801561030457600080fd5b505af1158015610318573d6000803e3d6000fd5b505050506040513d602081101561032e57600080fd5b50506000805460408051631553376160e11b81526b1393d4d251d7d254d4d5515160a21b600482015290516001600160a01b0390921692632aa66ec29260248084019382900301818387803b15801561038657600080fd5b505af115801561039a573d6000803e3d6000fd5b50506040805189815290516001600160a01b03851693503392507f92c37dd655554ac1b6ba26bc976026b226f3f36fa42203dba3b558e9dcd447e39181900360200190a350505050505050565b6000546040805163136a43cd60e21b81523360048201819052915191926001600160a01b031691634da90f3491602480820192602092909190829003018186803b15801561043457600080fd5b505afa158015610448573d6000803e3d6000fd5b505050506040513d602081101561045e57600080fd5b50516104a9576040805162461bcd60e51b815260206004820152601560248201527426bab9ba1031329030903b30b634b21030b236b4b760591b604482015290519081900360640190fd5b50600080546001600160a01b0319166001600160a01b0392909216919091179055565b610db2806104da8339019056fe60806040523480156200001157600080fd5b5060405162000db238038062000db283398181016040526101008110156200003857600080fd5b8151602083015160408085015160608601805192519496939591949391820192846401000000008211156200006c57600080fd5b9083019060208201858111156200008257600080fd5b8251866020820283011164010000000082111715620000a057600080fd5b82525081516020918201928201910280838360005b83811015620000cf578181015183820152602001620000b5565b5050505090500160405260200180516040519392919084640100000000821115620000f957600080fd5b9083019060208201858111156200010f57600080fd5b82518660208202830111640100000000821117156200012d57600080fd5b82525081516020918201928201910280838360005b838110156200015c57818101518382015260200162000142565b5050505091909101604081815260208401519084015160609094018051919694959294935090846401000000008211156200019657600080fd5b908301906020820185811115620001ac57600080fd5b8251640100000000811182820188101715620001c757600080fd5b82525081516020918201929091019080838360005b83811015620001f6578181015183820152602001620001dc565b50505050905090810190601f168015620002245780820380516001836020036101000a031916815260200191505b506040525050600180546001600160a01b0319166001600160a01b038a1617905550845188908890889088908890889087906200026990600090602087019062000381565b50600480546001600160a01b0319166001600160a01b038916179055600285905580516200029f906003906020840190620003eb565b5060058290558351600655600160085560005b6000548110156200036057838181518110620002ca57fe5b602002602001015160096000808481548110620002e357fe5b60009182526020808320909101546001600160a01b0316835282019290925260400181209190915580546001916009918190859081106200032057fe5b6000918252602080832091909101546001600160a01b031683528201929092526040019020600201805460ff1916911515919091179055600101620002b2565b5050600460085550505060069490945550620004b398505050505050505050565b828054828255906000526020600020908101928215620003d9579160200282015b82811115620003d957825182546001600160a01b0319166001600160a01b03909116178255602090920191600190910190620003a2565b50620003e79291506200046c565b5090565b828054600181600116156101000203166002900490600052602060002090601f016020900481019282601f106200042e57805160ff19168380011785556200045e565b828001600101855582156200045e579182015b828111156200045e57825182559160200191906001019062000441565b50620003e792915062000496565b6200049391905b80821115620003e75780546001600160a01b031916815560010162000473565b90565b6200049391905b80821115620003e757600081556001016200049d565b6108ef80620004c36000396000f3fe608060405234801561001057600080fd5b50600436106100625760003560e01c80635c7f94b7146100675780636638c73a14610117578063b2b4bd17146101d3578063ed56b3e11461022b578063f7134b6414610251578063fcf3e706146102d5575b600080fd5b61008d6004803603602081101561007d57600080fd5b50356001600160a01b03166102dd565b604051808481526020018060200183151515158152602001828103825284818151815260200191508051906020019080838360005b838110156100da5781810151838201526020016100c2565b50505050905090810190601f1680156101075780820380516001836020036101000a031916815260200191505b5094505050505060405180910390f35b61011f61038d565b6040518088815260200180602001876001600160a01b03166001600160a01b03168152602001868152602001858152602001848152602001838152602001828103825288818151815260200191508051906020019080838360005b8381101561019257818101518382015260200161017a565b50505050905090810190601f1680156101bf5780820380516001836020036101000a031916815260200191505b509850505050505050505060405180910390f35b6101db610469565b60408051602080825283518183015283519192839290830191858101910280838360005b838110156102175781810151838201526020016101ff565b505050509050019250505060405180910390f35b61008d6004803603602081101561024157600080fd5b50356001600160a01b03166104cc565b6102c16004803603604081101561026757600080fd5b81019060208101813564010000000081111561028257600080fd5b82018360208201111561029457600080fd5b803590602001918460018302840111640100000000831117156102b657600080fd5b919350915035610596565b604080519115158252519081900360200190f35b6102c1610806565b6009602090815260009182526040918290208054600180830180548651600293821615610100026000190190911692909204601f81018690048602830186019096528582529194929390929083018282801561037a5780601f1061034f5761010080835404028352916020019161037a565b820191906000526020600020905b81548152906001019060200180831161035d57829003601f168201915b5050506002909301549192505060ff1683565b6002805460045460055460065460075460085460038054604080516020610100600185161502600019019093169a909a04601f810183900483028b018301909152808a526000996060998b998a998a998a998a999498976001600160a01b03909416969295919490939092889183018282801561044b5780601f106104205761010080835404028352916020019161044b565b820191906000526020600020905b81548152906001019060200180831161042e57829003601f168201915b50505050509550965096509650965096509650965090919293949596565b606060008054806020026020016040519081016040528092919081815260200182805480156104c157602002820191906000526020600020905b81546001600160a01b031681526001909101906020018083116104a3575b505050505090505b90565b6001600160a01b038116600090815260096020908152604080832080546002808301546001938401805486516101009682161596909602600019011692909204601f810187900487028501870190955284845260609587959394929360ff909216929184918301828280156105825780601f1061055757610100808354040283529160200191610582565b820191906000526020600020905b81548152906001019060200180831161056557829003601f168201915b505050505091509250925092509193909250565b3360008181526009602052604081206002015490919060ff161515600114610605576040805162461bcd60e51b815260206004820152601960248201527f4d75737420626520612076616c6964207369676e61746f727900000000000000604482015290519081900360640190fd5b3360008181526009602052604090206001908101546002918116156101000260001901160415610673576040805162461bcd60e51b815260206004820152601460248201527314da59db985d1bdc9e481a185cc81cda59db995960621b604482015290519081900360640190fd5b6040805160208082018790528251808303820181528284018452805190820120600254606080850191909152845180850390910181526080909301909352815191012014610708576040805162461bcd60e51b815260206004820152601760248201527f496e636f727265637420646f63756d656e742068617368000000000000000000604482015290519081900360640190fd5b336000908152600960205260409020610725906001018787610822565b5060078054600190810190915560408051868152600260208201528082019290925251309133917ff31725eaa6c1cb72ac1fa886d6132a638cf8d19cb3bfbc0f1876d0162adeea319181900360600190a360015460408051631553376160e11b81527f4d554c54495349475f5349474e4154555245535f434f554e5400000000000000600482015290516001600160a01b0390921691632aa66ec29160248082019260009290919082900301818387803b1580156107e257600080fd5b505af11580156107f6573d6000803e3d6000fd5b5060019998505050505050505050565b6006546007546000911161081c575060016104c9565b50600090565b828054600181600116156101000203166002900490600052602060002090601f016020900481019282601f106108635782800160ff19823516178555610890565b82800160010185558215610890579182015b82811115610890578235825591602001919060010190610875565b5061089c9291506108a0565b5090565b6104c991905b8082111561089c57600081556001016108a656fea265627a7a723158203bc571a7968dd01c339e308fc50878c137784276e338c1b50f608dca6519a6c064736f6c634300050b0032a265627a7a72315820c54c1a7c324c9ee4b64b625579e85c53b84f19393dbe99084d584a38df65e9c564736f6c634300050b0032",
  "source": "pragma solidity ^0.5.11;\n\nimport \"./NoSignature.sol\";\nimport \"../../eternal-storage/EternalStorageInterface.sol\";\n\n/// @title A factory contract\n/// @notice This contract is used to deploy other document contracts and store the uploaders contracts' addresses\ncontract FactoryNoSignature {\n\n  EternalStorageInterface es;\n\n  /// @notice Assigns eternal storage address to variable upon construction\n  /// @dev called upon setting up of the jedsign infrastructure\n  /// @param _eternalStorage Address of eternal storage for created signature contract information\n  constructor(address _eternalStorage) public {\n    es = EternalStorageInterface(_eternalStorage);\n  }\n\n  /// @notice Checks if msg.sender is an admin by referencing eternal storage\n  /// @param _address parameter would be msg.sender\n  modifier isAdmin(address _address) {\n    require(es.isAccountAdmin(_address), \"Must be a valid admin\");\n    _;\n  }\n\n  /// @notice function to change eternal storage address\n  /// @dev called when we change eternal storages, function checks if account is admin\n  /// @param _newEternal Address of the new eternal storage\n  function changeEternal(address _newEternal) external isAdmin(msg.sender) {\n    es = EternalStorageInterface(_newEternal);\n  }\n\n  event CreateDocEvent(address indexed _from, address indexed _newDoc, uint256 _date);\n\n  /// @notice Creates No Signature Document and store contract's address in mapping\n  /// @dev Invoked by uploader using metamask\n  /// @param dochash The document's hash\n  /// @param date Unix timestamp of invokation of function\n  /// @param fileName description/name of file\n  function createNoSignature(\n    bytes32 dochash,\n    uint256 date,\n    string memory fileName\n  ) public {\n\n//    address[] memory signAdds = new address[](0);\n//    bytes32[] memory signEmails = new bytes32[](0);\n    address[] memory signAdds;\n    bytes32[] memory signEmails;\n    uint256 signaturesNeeded;\n\n    require(signAdds.length == signEmails.length, \"Addresses provided do not match emails provided\");\n    require(signaturesNeeded <= signAdds.length, \"Signatures required cannot be achieved by number of signatories\");\n\n    address newDocument = address(\n      new NoSignature(\n        msg.sender,\n        address(es),\n        dochash,\n        signAdds,\n        signEmails,\n        date,\n        0,\n        fileName\n      )\n    );\n\n    es.addUploaderContract(4, msg.sender, newDocument, dochash);\n    es.incrementMetrics(\"NOSIG_ISSUED\");\n\n    emit CreateDocEvent(msg.sender, newDocument, date);\n\n  }\n\n}\n",
  "sourcePath": "/Users/argentra/jed-enterprise/platform-contract/contracts/jedsign/no-signature/FactoryNoSignature.sol",
  "compiler": {
    "name": "solc",
    "version": "0.5.11+commit.c082d0b4.Emscripten.clang"
  },
  "schemaVersion": "3.0.17",
  "updatedAt": "2020-02-19T02:59:49.948Z",
  "networkType": "ethereum",
  "devdoc": {
    "methods": {
      "changeEternal(address)": {
        "details": "called when we change eternal storages, function checks if account is admin",
        "params": {
          "_newEternal": "Address of the new eternal storage"
        }
      },
      "constructor": {
        "details": "called upon setting up of the jedsign infrastructure",
        "params": {
          "_eternalStorage": "Address of eternal storage for created signature contract information"
        }
      },
      "createNoSignature(bytes32,uint256,string)": {
        "details": "Invoked by uploader using metamask",
        "params": {
          "date": "Unix timestamp of invokation of function",
          "dochash": "The document's hash",
          "fileName": "description/name of file"
        }
      }
    },
    "title": "A factory contract"
  },
  "userdoc": {
    "methods": {
      "changeEternal(address)": {
        "notice": "function to change eternal storage address"
      },
      "constructor": "Assigns eternal storage address to variable upon construction",
      "createNoSignature(bytes32,uint256,string)": {
        "notice": "Creates No Signature Document and store contract's address in mapping"
      }
    },
    "notice": "This contract is used to deploy other document contracts and store the uploaders contracts' addresses"
  }
}