{
  "contractName": "NoSignature",
  "abi": [
    {
      "constant": true,
      "inputs": [
        {
          "internalType": "address",
          "name": "",
          "type": "address"
        }
      ],
      "name": "signersMap",
      "outputs": [
        {
          "internalType": "bytes32",
          "name": "signersEmail",
          "type": "bytes32"
        },
        {
          "internalType": "string",
          "name": "signature",
          "type": "string"
        },
        {
          "internalType": "bool",
          "name": "exists",
          "type": "bool"
        }
      ],
      "payable": false,
      "stateMutability": "view",
      "type": "function"
    },
    {
      "constant": true,
      "inputs": [],
      "name": "getDocInfo",
      "outputs": [
        {
          "internalType": "bytes32",
          "name": "",
          "type": "bytes32"
        },
        {
          "internalType": "string",
          "name": "",
          "type": "string"
        },
        {
          "internalType": "address",
          "name": "",
          "type": "address"
        },
        {
          "internalType": "uint256",
          "name": "",
          "type": "uint256"
        },
        {
          "internalType": "uint256",
          "name": "",
          "type": "uint256"
        },
        {
          "internalType": "uint256",
          "name": "",
          "type": "uint256"
        },
        {
          "internalType": "uint256",
          "name": "",
          "type": "uint256"
        }
      ],
      "payable": false,
      "stateMutability": "view",
      "type": "function"
    },
    {
      "constant": true,
      "inputs": [],
      "name": "getSignersAddresses",
      "outputs": [
        {
          "internalType": "address[]",
          "name": "",
          "type": "address[]"
        }
      ],
      "payable": false,
      "stateMutability": "view",
      "type": "function"
    },
    {
      "constant": true,
      "inputs": [
        {
          "internalType": "address",
          "name": "_address",
          "type": "address"
        }
      ],
      "name": "getSignerInfo",
      "outputs": [
        {
          "internalType": "bytes32",
          "name": "",
          "type": "bytes32"
        },
        {
          "internalType": "string",
          "name": "",
          "type": "string"
        },
        {
          "internalType": "bool",
          "name": "",
          "type": "bool"
        }
      ],
      "payable": false,
      "stateMutability": "view",
      "type": "function"
    },
    {
      "constant": true,
      "inputs": [],
      "name": "isDocumentValid",
      "outputs": [
        {
          "internalType": "bool",
          "name": "",
          "type": "bool"
        }
      ],
      "payable": false,
      "stateMutability": "view",
      "type": "function"
    },
    {
      "inputs": [
        {
          "internalType": "address",
          "name": "_uploader",
          "type": "address"
        },
        {
          "internalType": "address",
          "name": "_eternalStorage",
          "type": "address"
        },
        {
          "internalType": "bytes32",
          "name": "_documentHash",
          "type": "bytes32"
        },
        {
          "internalType": "address[]",
          "name": "_signersAddresses",
          "type": "address[]"
        },
        {
          "internalType": "bytes32[]",
          "name": "_signersEmails",
          "type": "bytes32[]"
        },
        {
          "internalType": "uint256",
          "name": "_date",
          "type": "uint256"
        },
        {
          "internalType": "uint256",
          "name": "_signaturesNeeded",
          "type": "uint256"
        },
        {
          "internalType": "string",
          "name": "_fileName",
          "type": "string"
        }
      ],
      "payable": false,
      "stateMutability": "nonpayable",
      "type": "constructor"
    },
    {
      "anonymous": false,
      "inputs": [
        {
          "indexed": true,
          "internalType": "address",
          "name": "_from",
          "type": "address"
        },
        {
          "indexed": true,
          "internalType": "address",
          "name": "_this",
          "type": "address"
        },
        {
          "indexed": false,
          "internalType": "bytes32",
          "name": "_dochash",
          "type": "bytes32"
        },
        {
          "indexed": false,
          "internalType": "uint256",
          "name": "_type",
          "type": "uint256"
        },
        {
          "indexed": false,
          "internalType": "bool",
          "name": "_signed",
          "type": "bool"
        }
      ],
      "name": "SigningEvent",
      "type": "event"
    },
    {
      "constant": false,
      "inputs": [
        {
          "internalType": "string",
          "name": "_signature",
          "type": "string"
        },
        {
          "internalType": "bytes32",
          "name": "_dochash",
          "type": "bytes32"
        }
      ],
      "name": "signDocument",
      "outputs": [
        {
          "internalType": "bool",
          "name": "",
          "type": "bool"
        }
      ],
      "payable": false,
      "stateMutability": "nonpayable",
      "type": "function"
    }
  ],
  "bytecode": "0x60806040523480156200001157600080fd5b5060405162000db238038062000db283398181016040526101008110156200003857600080fd5b8151602083015160408085015160608601805192519496939591949391820192846401000000008211156200006c57600080fd5b9083019060208201858111156200008257600080fd5b8251866020820283011164010000000082111715620000a057600080fd5b82525081516020918201928201910280838360005b83811015620000cf578181015183820152602001620000b5565b5050505090500160405260200180516040519392919084640100000000821115620000f957600080fd5b9083019060208201858111156200010f57600080fd5b82518660208202830111640100000000821117156200012d57600080fd5b82525081516020918201928201910280838360005b838110156200015c57818101518382015260200162000142565b5050505091909101604081815260208401519084015160609094018051919694959294935090846401000000008211156200019657600080fd5b908301906020820185811115620001ac57600080fd5b8251640100000000811182820188101715620001c757600080fd5b82525081516020918201929091019080838360005b83811015620001f6578181015183820152602001620001dc565b50505050905090810190601f168015620002245780820380516001836020036101000a031916815260200191505b506040525050600180546001600160a01b0319166001600160a01b038a1617905550845188908890889088908890889087906200026990600090602087019062000381565b50600480546001600160a01b0319166001600160a01b038916179055600285905580516200029f906003906020840190620003eb565b5060058290558351600655600160085560005b6000548110156200036057838181518110620002ca57fe5b602002602001015160096000808481548110620002e357fe5b60009182526020808320909101546001600160a01b0316835282019290925260400181209190915580546001916009918190859081106200032057fe5b6000918252602080832091909101546001600160a01b031683528201929092526040019020600201805460ff1916911515919091179055600101620002b2565b5050600460085550505060069490945550620004b398505050505050505050565b828054828255906000526020600020908101928215620003d9579160200282015b82811115620003d957825182546001600160a01b0319166001600160a01b03909116178255602090920191600190910190620003a2565b50620003e79291506200046c565b5090565b828054600181600116156101000203166002900490600052602060002090601f016020900481019282601f106200042e57805160ff19168380011785556200045e565b828001600101855582156200045e579182015b828111156200045e57825182559160200191906001019062000441565b50620003e792915062000496565b6200049391905b80821115620003e75780546001600160a01b031916815560010162000473565b90565b6200049391905b80821115620003e757600081556001016200049d565b6108ef80620004c36000396000f3fe608060405234801561001057600080fd5b50600436106100625760003560e01c80635c7f94b7146100675780636638c73a14610117578063b2b4bd17146101d3578063ed56b3e11461022b578063f7134b6414610251578063fcf3e706146102d5575b600080fd5b61008d6004803603602081101561007d57600080fd5b50356001600160a01b03166102dd565b604051808481526020018060200183151515158152602001828103825284818151815260200191508051906020019080838360005b838110156100da5781810151838201526020016100c2565b50505050905090810190601f1680156101075780820380516001836020036101000a031916815260200191505b5094505050505060405180910390f35b61011f61038d565b6040518088815260200180602001876001600160a01b03166001600160a01b03168152602001868152602001858152602001848152602001838152602001828103825288818151815260200191508051906020019080838360005b8381101561019257818101518382015260200161017a565b50505050905090810190601f1680156101bf5780820380516001836020036101000a031916815260200191505b509850505050505050505060405180910390f35b6101db610469565b60408051602080825283518183015283519192839290830191858101910280838360005b838110156102175781810151838201526020016101ff565b505050509050019250505060405180910390f35b61008d6004803603602081101561024157600080fd5b50356001600160a01b03166104cc565b6102c16004803603604081101561026757600080fd5b81019060208101813564010000000081111561028257600080fd5b82018360208201111561029457600080fd5b803590602001918460018302840111640100000000831117156102b657600080fd5b919350915035610596565b604080519115158252519081900360200190f35b6102c1610806565b6009602090815260009182526040918290208054600180830180548651600293821615610100026000190190911692909204601f81018690048602830186019096528582529194929390929083018282801561037a5780601f1061034f5761010080835404028352916020019161037a565b820191906000526020600020905b81548152906001019060200180831161035d57829003601f168201915b5050506002909301549192505060ff1683565b6002805460045460055460065460075460085460038054604080516020610100600185161502600019019093169a909a04601f810183900483028b018301909152808a526000996060998b998a998a998a998a999498976001600160a01b03909416969295919490939092889183018282801561044b5780601f106104205761010080835404028352916020019161044b565b820191906000526020600020905b81548152906001019060200180831161042e57829003601f168201915b50505050509550965096509650965096509650965090919293949596565b606060008054806020026020016040519081016040528092919081815260200182805480156104c157602002820191906000526020600020905b81546001600160a01b031681526001909101906020018083116104a3575b505050505090505b90565b6001600160a01b038116600090815260096020908152604080832080546002808301546001938401805486516101009682161596909602600019011692909204601f810187900487028501870190955284845260609587959394929360ff909216929184918301828280156105825780601f1061055757610100808354040283529160200191610582565b820191906000526020600020905b81548152906001019060200180831161056557829003601f168201915b505050505091509250925092509193909250565b3360008181526009602052604081206002015490919060ff161515600114610605576040805162461bcd60e51b815260206004820152601960248201527f4d75737420626520612076616c6964207369676e61746f727900000000000000604482015290519081900360640190fd5b3360008181526009602052604090206001908101546002918116156101000260001901160415610673576040805162461bcd60e51b815260206004820152601460248201527314da59db985d1bdc9e481a185cc81cda59db995960621b604482015290519081900360640190fd5b6040805160208082018790528251808303820181528284018452805190820120600254606080850191909152845180850390910181526080909301909352815191012014610708576040805162461bcd60e51b815260206004820152601760248201527f496e636f727265637420646f63756d656e742068617368000000000000000000604482015290519081900360640190fd5b336000908152600960205260409020610725906001018787610822565b5060078054600190810190915560408051868152600260208201528082019290925251309133917ff31725eaa6c1cb72ac1fa886d6132a638cf8d19cb3bfbc0f1876d0162adeea319181900360600190a360015460408051631553376160e11b81527f4d554c54495349475f5349474e4154555245535f434f554e5400000000000000600482015290516001600160a01b0390921691632aa66ec29160248082019260009290919082900301818387803b1580156107e257600080fd5b505af11580156107f6573d6000803e3d6000fd5b5060019998505050505050505050565b6006546007546000911161081c575060016104c9565b50600090565b828054600181600116156101000203166002900490600052602060002090601f016020900481019282601f106108635782800160ff19823516178555610890565b82800160010185558215610890579182015b82811115610890578235825591602001919060010190610875565b5061089c9291506108a0565b5090565b6104c991905b8082111561089c57600081556001016108a656fea265627a7a723158203bc571a7968dd01c339e308fc50878c137784276e338c1b50f608dca6519a6c064736f6c634300050b0032",
  "source": "pragma solidity ^0.5.11;\n\nimport \"../all-signature/AllSignature.sol\";\n\ncontract NoSignature is AllSignature {\n  /// @notice Creates All Signature Document and store contract's address in mapping\n  /// @dev Invoked by uploader using metamask\n  /// @param _uploader Address of creator of All Signature Contract.\n  /// @param _eternalStorage Address of eternal storage for metric logging.\n  /// @param _documentHash Hash of uploaded document within 32 bytes.\n  /// @param _signersAddresses Array of addresses. Ensure index of address corresponds to index of signersEmails\n  /// @param _signersEmails Array of 32 bytes hash of emails of signatories.\n  /// @param _date Unix timestamp of when the contract is created\n  /// @param _signaturesNeeded number of signatures necessary for document to be valid.\n  /// @param  _fileName Description/Name of file.\n  constructor(\n    address _uploader,\n    address _eternalStorage,\n    bytes32 _documentHash,\n    address[] memory _signersAddresses,\n    bytes32[] memory _signersEmails,\n    uint256 _date,\n    uint256 _signaturesNeeded,\n    string memory _fileName\n  )\n    public\n    AllSignature(\n      _uploader,\n      _eternalStorage,\n      _documentHash,\n      _signersAddresses,\n      _signersEmails,\n      _date,\n      _fileName\n    )\n  {\n    //nosig type: 4\n    docInfo.contractType = 4;\n    docInfo.signaturesNeeded = _signaturesNeeded;\n  }\n\n  /// @notice Store signature in contract. Function is inherited as the contract type and key for metric\n  /// logging, MULTISIG_SIGNATURES_COUNT, differs from that of the AllSignature contract.\n  /// @dev Invoked by signatory, only possible if signer is a valid signatory.\n  /// @param _signature signed hash of the document. Type: String.\n  /// @param _dochash hash of document to 32 bytes.\n  /// @return boolean value if signing was successful + emit event.\n  function signDocument(string calldata _signature, bytes32 _dochash)\n    external\n    isValidSigner(msg.sender)\n    notYetSigned(msg.sender)\n    returns (bool)\n  {\n    require(\n      keccak256(abi.encodePacked((docInfo.documentHash))) ==\n        keccak256(abi.encodePacked((_dochash))),\n      \"Incorrect document hash\"\n    );\n    signersMap[msg.sender].signature = _signature;\n    docInfo.signedCount++;\n    emit SigningEvent(msg.sender, address(this), _dochash, 2, true);\n    es.incrementMetrics(\"MULTISIG_SIGNATURES_COUNT\");\n\n    return true;\n  }\n}\n",
  "sourcePath": "/Users/argentra/jed-enterprise/platform-contract/contracts/jedsign/no-signature/NoSignature.sol",
  "compiler": {
    "name": "solc",
    "version": "0.5.11+commit.c082d0b4.Emscripten.clang"
  },
  "schemaVersion": "3.0.17",
  "updatedAt": "2020-02-18T10:05:01.677Z",
  "devdoc": {
    "methods": {
      "constructor": {
        "details": "Invoked by uploader using metamask",
        "params": {
          "_date": "Unix timestamp of when the contract is created",
          "_documentHash": "Hash of uploaded document within 32 bytes.",
          "_eternalStorage": "Address of eternal storage for metric logging.",
          "_fileName": "Description/Name of file.",
          "_signaturesNeeded": "number of signatures necessary for document to be valid.",
          "_signersAddresses": "Array of addresses. Ensure index of address corresponds to index of signersEmails",
          "_signersEmails": "Array of 32 bytes hash of emails of signatories.",
          "_uploader": "Address of creator of All Signature Contract."
        }
      },
      "getSignerInfo(address)": {
        "params": {
          "_address": "Address of the account who's information you want to get."
        },
        "return": "signer's email, signature, and whether it currently exists."
      },
      "getSignersAddresses()": {
        "details": "Invoked by anyone",
        "return": "array of signers' addresses"
      },
      "isDocumentValid()": {
        "details": "Invoked by anyone, inherited by multisig",
        "return": "boolean value"
      },
      "signDocument(string,bytes32)": {
        "details": "Invoked by signatory, only possible if signer is a valid signatory.",
        "params": {
          "_dochash": "hash of document to 32 bytes.",
          "_signature": "signed hash of the document. Type: String."
        },
        "return": "boolean value if signing was successful + emit event."
      }
    }
  },
  "userdoc": {
    "methods": {
      "constructor": "Creates All Signature Document and store contract's address in mapping",
      "getDocInfo()": {
        "notice": "returns all information current document."
      },
      "getSignerInfo(address)": {
        "notice": "returns all information of individual account if exists within mapping."
      },
      "getSignersAddresses()": {
        "notice": "Get signers' addresses"
      },
      "isDocumentValid()": {
        "notice": "Check if document is signed by all signatories"
      },
      "signDocument(string,bytes32)": {
        "notice": "Store signature in contract. Function is inherited as the contract type and key for metric logging, MULTISIG_SIGNATURES_COUNT, differs from that of the AllSignature contract."
      }
    }
  }
}